:020000040800F2
:10000000980F0020A501000887180008D1170008E4
:10001000851800089B020008AD33000800000000AE
:10002000000000000000000000000000111D00089A
:100030009D02000800000000671B00081D1D00084D
:10004000BF010008BF010008BF010008BF01000890
:10005000BF010008BF010008BF010008BF01000880
:10006000BF010008BF010008BF010008BF01000870
:10007000BF010008BF010008BF010008BF01000860
:10008000BF010008BF010008BF010008BF01000850
:10009000BF010008BF010008BF010008BF01000840
:1000A000BF010008BF010008BF010008BF01000830
:1000B000BF0100080000000000000000BF010008B0
:1000C000BF0100080000000000000000BF010008A0
:1000D00000000000BF010008BF0100080000000090
:1000E000BF010008BF010008000000000000000080
:1000F0000000000000000000000000000000000000
:10010000000000000000000000000000BF01000827
:100110000000000000000000BF010008BF0100084F
:10012000BF010008BF010008BF010008BF010008AF
:10013000BF010008000000000000000000000000F7
:10014000BF010008BF010008BF0100080D3300080F
:10015000BF010008BF010008BF010008BF0100087F
:10016000BF010008BF010008BF0100080000000037
:10017000BF010008BF0100080000000000000000EF
:10018000BF010008BF010008BF010008DFF810D060
:1001900000F046F800480047E9340008AFF300805B
:1001A000980F00200648804706480047FEE7FEE714
:1001B000FEE7FEE7FEE7FEE7FEE7FEE7FEE7FEE717
:1001C000A91D00088D01000840EA01039B0703D028
:1001D00009E008C9121F08C0042AFAD203E011F886
:1001E000013B00F8013B521EF9D27047D2B201E048
:1001F00000F8012B491EFBD270470022F6E710B52C
:1002000013460A4604461946FFF7F0FF204610BD84
:10021000421C10F8011B0029FBD1801A7047000016
:10022000064C074D06E0E06840F0010394E8070043
:1002300098471034AC42F6D3FFF7ACFFE045000816
:100240000046000870B58C1810F8015B15F0070324
:1002500001D110F8013B2A1106D110F8012B03E05F
:1002600010F8016B01F8016B5B1EF9D12B0705D467
:100270000023521E0DD401F8013BFAE710F8013BB0
:10028000CB1A921C03E013F8015B01F8015B521ECC
:10029000F9D5A142D8D3002070BDFEE77047704762
:1002A000002200F001B8000030B50E4B05460120D9
:1002B0005C7A002C14D1587A1C54587A03EB8000D5
:1002C00045605D7A03F108002A54587A421C5A723C
:1002D000303008703A2048702F208870CC70002091
:1002E00030BD00008404002070B5044600F00EF814
:1002F0000546601C02D004480078044400F006F86B
:10030000401BA042FAD370BD100000200148806855
:1003100070470000100000200248816802781144F4
:10032000816070471000002010B50024032000F009
:1003300071F8002000F008F808B1012401E000F095
:1003400025F8204610BD000070B50E4E054600246D
:10035000307898B14FF47A71B1FBF0F00A4909682E
:10036000B1FBF0F001F020FA40B9102D06D20022C6
:100370002946501E00F02EF8756000E0012420464A
:1003800070BD0000100000201C000020094808B5C6
:10039000016E41F001010166016E01F00101009161
:1003A000816D41F080518165806D00F0805000903A
:1003B00008BD000000100240002809DB00F01F0209
:1003C000012191404009800000F1E020C0F80011B7
:1003D00070470000F0B40E4B1B680C46C3F30223B9
:1003E000C3F10705042D00D90425191D072901D2E1
:1003F000002300E0DB1E012606FA05F1491E21401C
:1004000099409E40761E16403143F0BC02F0CFBFAB
:100410000CED00E0064900F0070208684FF6FF0304
:10042000184040EA0220034A104308607047000069
:100430000CED00E00000FA0501220168C0F8E82296
:10044000002280F8E02231F8540F40F001000880CB
:10045000088840F0020008801046704770B50F4DC4
:10046000044669B101290AD1D4F8F00202F0B1F8CA
:10047000A069002803D0286840F00600286070BDFD
:10048000A06928B101F04CFC286820F00600286023
:10049000D4F8F002BDE8704002F022B810ED00E0A0
:1004A00010B50C0607D501F0070101EB810100EB47
:1004B000C100283005E001EB810100EBC10000F52F
:1004C000B47099B232B1012202730181190C4181D9
:1004D000002010BD00220273C180F9E701EB810208
:1004E00000EBC202D0F8F002D26B01F0D8BE01EBF3
:1004F000810200EBC202D0F8F002D2F87C2101F0B8
:1005000023BF70B504460B0601F0070000EB800125
:1005100004EBC1014FF001024FF0000503D581F853
:100520002920283103E081F8695101F5B471087080
:1005300094F8A802012808D084F8A822206802F0C4
:1005400074FB84F8A852002070BD022070BD70B505
:10055000044601F00F006268904201D9012070BD8D
:100560000B0601F0070000EB800104EBC1014FF026
:1005700001024FF0000503D581F82920283103E05E
:1005800081F8695101F5B4718D70087094F8A80272
:10059000012808D084F8A822206802F0EEFB84F835
:1005A000A852002070BD022070BD2DE9F0470468FC
:1005B0005FEA42480B788D69B4F850804FF0000C28
:1005C0004BF68F7748F2800648F68F7948F2C00ADA
:1005D000444428D540F2024808EBC30834F80840E8
:1005E000C4F30904A54203D32D1B8D6102D00BE097
:1005F000C1F818C0D0F800C03CF823503D4085F445
:10060000005535432CF82350520609D50B78056860
:1006100035F8232002EA090242EA0A0225F82320DB
:1006200074B30A8927E040F2064808EBC30834F89F
:100630000840C4F30904A54203D32D1B8D6102D0E9
:100640000BE0C1F818C0D0F800C03CF823503D4082
:1006500085F4005535432CF82350520609D40D7803
:10066000036833F8252002EA090242EA0A0223F865
:1006700025202CB14A8949690068234602F04FFEC3
:100680002046BDE8F0872DE9F04705460C46006896
:100690005FEA426816462278D4F818C0B0F8508055
:1006A0004FF0000148F68F774CF280094FF6FF7348
:1006B0004FF4004A404476D540F2024808EBC208A5
:1006C00030F80800C0F30900844514D9BCEB000CD5
:1006D000C4F818C010D0760408D5D5F800C03CF88E
:1006E00022603E4046EA09062CF8226094F8242055
:1006F000012A11D0D0E0A16111462846FFF7EEFE95
:10070000700408D521782A6832F82100384040EA80
:10071000090022F82100BFE0626902446261E269D7
:100720000244E2612669226AB24202D33046111ABB
:1007300003E084F824100AB110462162617811B1F7
:10074000012923D02BE02968B1F8502011442278E8
:1007500001EBC20101F2024148B13E280FD8420824
:10076000C60700D0521C03EA82220A8017E00A88DA
:1007700022F4F8420A800A8842F40042F5E742096E
:10078000C30600D1521E4AEA8222EEE72968B1F878
:1007900050201144227801EBC201A1F8020483B277
:1007A000228975E0FFE740F2064808EBC20830F8FE
:1007B0000800C0F30900844514D3BCEB000CC4F856
:1007C00018C010D0760408D4D5F800C03CF82260D8
:1007D0003E4046EA09062CF8226094F82420012ABB
:1007E00011D059E0A16111462846FFF777FE700449
:1007F00052D42278296831F82200384040EA0900B2
:1008000021F8220048E0626902446261E269024420
:10081000E2612669226AB24203D33046111A21628C
:1008200004E00AB11046216284F824106278296835
:1008300012B1012A22D029E0B1F8502011442278C7
:1008400001EBC20101F2064148B13E280FD842082F
:10085000C60700D0521C03EA82220A8016E00A88EA
:1008600022F4F8420A800A8842F40042F5E742097D
:10087000C30600D1521E4AEA8222EEE7B1F85020A8
:100880001144227801EBC201A1F80604628983B207
:100890006169286802F060FD2278296831F8220039
:1008A00048F6BF73184080F0300048F280031843C8
:1008B00021F822000020BDE8F0872DE9F041044630
:1008C0000F0601F0070000EB800104EBC1014FF0BF
:1008D00001064FF0000503D581F82960283103E0B7
:1008E00081F8695101F5B47108700A61CB704A78DA
:1008F00002B1C881022B00D10D7194F8A802012821
:1009000009D084F8A862206802F061F8284684F8CB
:10091000A852BDE8F0810220FBE770B50C4601F05B
:10092000070505EB850100EBC101C1E95F2300224A
:10093000C1F8842181F8692181F8685101F5B47109
:100940006207006802F06EFA002070BD70B50446C0
:100950000D4601F007006168884201D9012070BD91
:1009600029064FF000064FF0010207D500EB800189
:1009700004EBC10181F82920283107E005EB85014E
:1009800004EBC10181F8696101F5B4718A700870E6
:1009900094F8A802012807D084F8A822206802F061
:1009A00028FA680702D006E0022070BD04F52C7119
:1009B000206802F0E0F984F8A862002070BD70B5EC
:1009C0000C4601F0070505EB850100EBC101C1E90B
:1009D0000F23012281F84C208B6400234B6481F8A3
:1009E000292001F8285F6207006802F01BFA002046
:1009F00070BD10B50446006802F08EFC000402D5FC
:100A0000204600F041FF206802F086FC40050CD52E
:100A1000206830F8441F21F480610180204600F0F6
:100A200033F90021204600F05BF9206802F074FCE5
:100A3000400405D5206830F8441F21F4804101802E
:100A4000206802F069FC800405D5206830F8441F56
:100A500021F400510180206802F05EFCC0041FD523
:100A6000206830F8401F21F004010180206830F830
:100A7000401F21F00801018094F8E002012806D10E
:100A8000002084F8E00201462046FFF7E7FC2046FC
:100A900000F00EF9206830F8441F21F480510180E5
:100AA000206802F039FC000514D5206830F8401F9A
:100AB00041F008010180206830F8441F21F40061F2
:100AC0000180206830F8401F41F004010180204679
:100AD00000F036F9206802F01FFC00060BD52068F4
:100AE00030F8441F21F08001018094F8E002E0B169
:100AF000204600F025F9206802F00EFC800508D59C
:100B0000206830F8441F21F400710180204600F075
:100B1000E3F8206802F000FCC00505D5206830F835
:100B2000441F21F48071018010BD206830F8401FFF
:100B300041F004010180206830F8401F41F00801B5
:100B40000180012084F8E0022068B0F854003C21C4
:100B500001EA9000C4F8E40201212046FFF77EFC80
:100B6000C9E700002DE9F04186B0040004D094F8F4
:100B7000A902002520B108E0012006B0BDE8F081FF
:100B800084F8A852204600F061F8032084F8A902F6
:100B9000206802F0E8F804F1100114228846684643
:100BA000FFF712FB94E80F0002F03DF80226D0BBDD
:100BB0000021206802F0C7FB002001270FE000BFE2
:100BC00000EB800104EBC10181F8297001F8280FC6
:100BD000C881CD700D614D61401CC0B28D616168EE
:100BE0008142EDD8002011E000EB800104EBC1014F
:100BF00081F8695181F8680181F86B51C1F8785129
:100C0000C1F87C51401CC0B2C1F88051616881427A
:100C1000EAD8142241466846FFF7D6FA94E80F0056
:100C200002F098F810B184F8A962A5E784F824507E
:100C300084F8A972E069012802D12046FFF7FCFB85
:100C4000206802F080F8002097E7000008B50068EF
:100C50000B49884212D10B48816D41F0806181655A
:100C6000806D002200F08060009011464320FFF765
:100C7000B1FBBDE808404320FFF79EBB08BD000064
:100C8000006800400010024070B5044680680125ED
:100C9000022801D0FFF703FB2946D4F8F00201F047
:100CA00035FCD4F8F002BDE8704001F0F0BB000064
:100CB00010B50446806930B10648016821F006018C
:100CC000016001F02DF8D4F8F002BDE8104001F009
:100CD00007BC000010ED00E0D0F8F00201F00ABC03
:100CE00010B5044690F8A80201280BD0012084F822
:100CF000A80284F82410206802F027FB002084F862
:100D0000A80210BD022010BDD0F8F02200F52C7111
:100D1000104601F00EBC10B5044690F8A802012858
:100D20000CD0012084F8A802206802F0E5FA2068BF
:100D300002F002F8002084F8A80210BD022010BDC5
:100D400010B50446D0F8F00201F043FCA069002879
:100D500004D00348016841F00601016010BD0000A5
:100D600010ED00E01649B0F5007F0868C0F341209F
:100D700009D0022805D0086820F4C06040F48060E3
:100D80000860002070470128FBD0086820F4C0608C
:100D900040F4007008600B483222006850430A4A51
:100DA000B0FBF2F0401C00E0401E4A69520501D53C
:100DB0000028F9D148694005E3D5032070470000B9
:100DC000007000401C00002040420F0002484168B3
:100DD00041F4806141607047007000400248006843
:100DE00000F4C06070470000007000402DE9F84F2B
:100DF0000446002700889C4D3E46000515D5E06B53
:100E000060B1B0F5000F04D0B0F5400F2BD0012732
:100E10000AE0E86840F48030E86024E00021201D0A
:100E200000F0A2FE07001ED03E462068800338D5A1
:100E3000A86D4FF00008C00009D4A86D40F08050A4
:100E4000A865A86D4FF0010800F080500090DFF811
:100E50001CA2DAF8001041F48071CAF80010FFF704
:100E600055FA814610E0D5F88800E16B20F4400087
:100E70000843C5F88800D8E7FFF748FAA0EB090057
:100E8000022801D9032704E0DAF80000C005F3D5F1
:100E9000EFB33E46B8F1000F03D0A86D20F08050AC
:100EA000A8652078C00707D0D5F88800216A20F00F
:100EB00003000843C5F888002078800707D5D5F8D7
:100EC0008800616A20F00C000843C5F8880020788B
:100ED000800607D5D5F88800A16A20F44060084351
:100EE000C5F888002088800507D5D5F88800616B93
:100EF00020F440200843C5F888002088400509D523
:100F0000D5F88800A16B20F44010084300E02EE0E3
:100F1000C5F888002078400607D5D5F88800E16A32
:100F200020F440500843C5F888002088C00507D544
:100F3000D5F88800216B20F440300843C5F88800BC
:100F400020884FF0006780044FF080684ED5D5F8B8
:100F50008800216C20F040600843C5F88800206CB0
:100F6000B8423BD1E86840F48010E8603EE0D5F834
:100F7000900010F4407014D0216D814211D0D5F84A
:100F80009000D5F8901020F4407041F48031C5F8FD
:100F90009010D5F8901021F48031C5F89010C5F864
:100FA0009000C00711D0FFF7B1F9074641F2883928
:100FB00007E000BFFFF7AAF9C11B494501D9032685
:100FC00068E7D5F890008007F4D5D5F89000216D3A
:100FD00020F440700843C5F890005BE7404505D118
:100FE0000121201D00F0C0FD00B10646206840032D
:100FF00017D5D5F88800616C20F040600843C5F82B
:101000008800606CB84204D1E86840F48010E86061
:1010100007E0404505D10121201D00F0A5FD00B1EC
:1010200006462088400411D5D5F88800A16C20F030
:1010300040500843C5F88800A06CB0F1805F05D12E
:101040000221201D00F090FD00B10646208800041A
:1010500006D555F8880FE16C20F0804008432860E1
:10106000304600F005B8000000100240007000405B
:1010700018BCBDE8E08F00002DE9F0470F460500E1
:1010800058D0404E306800F00700B84209D23068AE
:1010900020F0070038433060306800F00700B842A5
:1010A00048D12878384CC0072CD06868032811D064
:1010B000022812D0216898B1490500293ADAA168BE
:1010C00021F003010143A160FFF720F9804641F2BE
:1010D000883910E021688901EFE721688903ECE78E
:1010E0008907EAE7FFF712F9A0EB0801494502D9A1
:1010F0000320BDE8F087A068696800F00C00B0EB41
:10110000810FEFD12878800705D5A068A96820F065
:10111000F0000843A060306800F00700B8420BD927
:10112000306820F0070038433060306800F0070076
:10113000B84201D00120DCE72878400705D5A06837
:10114000E96820F4E0600843A0602878000706D52D
:10115000A068296920F4605040EAC100A06000F056
:101160001BF8A168094AC1F30311515C01F01F018A
:10117000C8400749086007480068BDE8F047FFF726
:10118000E3B800000020024000100240A045000823
:101190001C0000201400002070B5254900231846CB
:1011A0008A68CC6812F00C0204F00306214C4FEA66
:1011B000640509D00C2A05D0042A32D0082A00D1AF
:1011C000284670BD012E10D10B681B0704D4D1F83E
:1011D0009430C3F3032302E00B68C3F30313164EEA
:1011E00056F82330DAB10C2AEBD1C86800F00300BE
:1011F000022818D0032818D01846CA68CB68C2F352
:101200000212C3F306234343521CB3FBF2F2C86835
:10121000C0F34160401C4000B2FBF0F070BD1846C6
:1012200070BD204670BD2046E7E72846E5E7000090
:10123000001002400024F400B04500082DE9F843F6
:1012400004006FD0FE4DA86800F00C06E86800F0BE
:1012500003072078C00664D576B10C2E01D1012F8A
:101260000AD0A069002828687AD040F001002860E0
:10127000FFF74CF880465DE02868800702D5A0693A
:101280000028DED0216A2868000703D5286800F00E
:10129000F00004E0D5F89400F02202EA1010814238
:1012A00016D9084600F0F6FC00283BD1286840F02B
:1012B000080028602868216A20F0F00008432860B0
:1012C0006868E16920F47F4040EA0120686016E028
:1012D000286840F0080028602868216A20F0F000A3
:1012E000084328606868E16920F47F4040EA0120F3
:1012F000686026B9206A00F0CDFC0028D5D1FFF740
:101300004BFFA968CF4AC1F30311515C01F01F01E3
:10131000C840CD490860CD480068FFF715F800289F
:101320007ED12EE0CAE000BFFEF7F0FFA0EB080080
:10133000022876D828688007F6D5286840F008008B
:1013400028602868216A20F0F00008432860686857
:10135000E16920F47F4040EA0120686011E0FFE786
:1013600020F001002860FEF7D1FF804606E000BFB4
:10137000FEF7CCFFA0EB08000228DAD82868800727
:10138000F6D42078C00740D0082E18D00C2E01D1FA
:10139000032F14D06068B0F5803F17D0B0F5A02FB0
:1013A000286817D020F480302860286820F4802036
:1013B00028606068E0B1FEF7A9FF804614E0286865
:1013C000800322D56068002878D01EE0286840F4A9
:1013D0008030EDE740F480202860F7E7FEF796FFC5
:1013E000A0EB08006428A4D828688003F6D50CE098
:1013F000FEF78CFF804605E0FEF788FFA0EB0800B3
:10140000642896D828688003F6D4207880073BD5D6
:10141000042E11D00C2E01D1022F0DD0E06801E076
:10142000B6E1FFE0002828681ED040F480702860F4
:10143000FEF76CFF07460CE0286840050CD5E06815
:101440000028C1D008E000BFFEF760FFC01B0228E3
:1014500093D828684005F7D56868217C20F0FE40C5
:1014600040EA016068600FE020F480702860FEF7B9
:101470004DFF074605E000BFFEF748FFC01B0228EE
:10148000B1D828684005F7D42078000729D56069CD
:101490000028D5F8940012D040F00100C5F894005F
:1014A000FEF734FF074604E0FEF730FFC01B0228BA
:1014B00099D8D5F894008007F6D512E02BE120F0FA
:1014C0000100C5F89400FEF721FF074605E000BFC4
:1014D000FEF71CFFC01B022885D8D5F894008007B2
:1014E000F6D42078400766D5A86D0027C00008D440
:1014F000A86D40F08050A865A86D012700F08050CD
:10150000009053480168C90512D40168814641F42E
:1015100080710160FEF7FAFE804605E0FEF7F6FEF8
:10152000A0EB080002287DD8D9F80000C005F5D549
:10153000A068012816D00528D5F8900017D020F013
:101540000100C5F89000D5F8900020F0040000BF1D
:10155000C5F89000A06841F28839C0B1FEF7D6FE08
:1015600080460FE0D5F8900040F00100F0E740F031
:101570000400C5F89000F5E7FEF7C8FEA0EB0801EF
:1015800049454FD8D5F890008007F5D50EE0FEF715
:10159000BDFE804606E000BFFEF7B8FEA0EB0801E6
:1015A00049453FD8D5F890008007F5D41FB1A86D04
:1015B00020F08050A8652078800628D5606A002831
:1015C000D5F8980012D040F00100C5F89800FEF759
:1015D0009DFE074605E000BFFEF798FEC01B0228EF
:1015E00020D8D5F898008007F6D510E020F001004B
:1015F000C5F89800FEF78AFE074604E0FEF786FE6F
:10160000C01B02280ED8D5F898008007F6D4A06A2F
:10161000A8B1022824D00C2E7DD0286820F080703C
:10162000286000E0B3E02868000103D4E86820F0F7
:101630000300E860E86807490840E8600CE09FE0C4
:1016400000100240A04500081C00002014000020EB
:1016500000700040FFFFEEFEFEF758FE044699E0E2
:10166000E868E26A00F00301914226D1216B00F0A4
:1016700070020901103991421FD1626B00F4FE41E2
:10168000B1EB022F19D194F8382000F07841B1EB7A
:10169000C26F12D1A18F00F4C00249084905A1F51B
:1016A0000011914209D194F8401000F0C06049083F
:1016B0004906A1F1007181424BD00C2E6FD02868F1
:1016C00040016CD4286820F080702860FEF71EFE70
:1016D000064604E0FEF71AFE801B022857D8286849
:1016E0008001F7D4F4E90B016FF00F0202EB011156
:1016F0000843218A5204490802EB4151A26841EA99
:1017000002210843217D4FF07E42490802EB4161EE
:101710000843217B00E042E040EAC160E968214AD9
:1017200011400843E860286840F080702860E8684D
:1017300040F08070E860FEF7E9FD044605E000BF78
:10174000FEF7E4FD001B022821D828688001F7D5A8
:1017500023E02868800120D4286840F08070286049
:10176000E86840F08070E860FEF7D0FD044604E0D1
:10177000FEF7CCFD001B022809D828688001F7D5A8
:101780000BE000BFFEF7C2FD001B022802D90320B8
:10179000BDE8F88328688001F4D40020F8E7012030
:1017A000F6E700008C809D0110B5401EB0F1807FEF
:1017B00001D3012010BD4FF0E02460610F216017BC
:1017C00001F0F5FD0020A06107202061002010BD80
:1017D000FEE70000F0B500230A24302537261F4617
:1017E00011E000BFB4EB107F02D905EB107C01E0E3
:1017F00006EB107C01F813C001EB430C00015B1CED
:101800008CF80170DBB29342ECD3F0BD10B5044903
:101810000448FEF745FD0249491E087010BD00004E
:101820003900002024000020054808B5C16C41F0B3
:101830000101C164C06C00F00100009008BD00000F
:101840000010024010B500220B490C4800F0F4FCD7
:1018500008B1FEF724FD0A49084800F0E9FE08B186
:10186000FEF71DFD054800F05DFF002803D0BDE830
:101870001040FEF714BD10BD40000020B401002050
:10188000A0000020FEE770472DE9F84F044640F61F
:101890008F7A40F2064B48F60F7940F2024856E143
:1018A000B0F8441011F00F0637D030F82670390424
:1018B0007ED530F8261001EA0A0141F0800120F8B7
:1018C000261006EB860004EBC00595F8740105F5BB
:1018D000B47500286DD0E87802286BD0287822688B
:1018E00032F8201048F68F73194048F2C0031943AC
:1018F00022F820102978206830F821205204B0F80E
:10190000502002EB00037DD508EBC101595A89052F
:10191000890D009177D02A89C3E0C9062BD40288AB
:1019200002EA090242F400410180206804F128051E
:10193000B0F850102A78014408EBC200085AC0F3EE
:1019400009016164E06B0844E06300212046FEF772
:10195000C5FD94F824000028A1D0A86900289ED1D4
:1019600094F82400216840F08000A1F84C00002089
:1019700084F82400EBE0018804F5B4750A051ED54F
:10198000B0F850102A7801440BEBC200085A04F555
:101990002C71C0F30903EB61EA88206801F0BFFCF9
:1019A0002068018801EA0A0141F08001018002E01B
:1019B00092E059E066E02046FFF7A6F9C7E0090487
:1019C000D8D5018801EA0A0141F080010180206830
:1019D000B0F850102A7801440BEBC200085A830576
:1019E0009B0DEB610DD0696959B1EA88206801F05F
:1019F00096FCE96968690844686100212046FEF7A1
:101A000076FD01E045E043E02068B0F8501008445E
:101A1000296900F2064051B13E2910D84A08C90789
:101A200000D0521C4FF6FF7101EA82210FE00188BD
:101A300021F4F8410180018841F4004107E04A099E
:101A4000C90600D1521E4FF4004141EA82210180B3
:101A5000216808884BF68F72104080F4405048F29D
:101A600080021043088072E02068B0F850102B7894
:101A70000A180BEBC301515A8905890D009114D046
:101A8000EA880EE03A4629462046FEF78EFD009091
:101A90000BE00BEBC101595A8905890D009104D067
:101AA0006A896969009B01F03AFCE9690098084479
:101AB000E8616969009808446861A86918B12969F2
:101AC0000098814204D929782046FEF710FD03E0F2
:101AD0002946206801F0A6F9380638D5226806EBB9
:101AE000860004EBC00132F8260000EA090040F449
:101AF000004022F8260091F82B002831022801D15D
:101B0000F80520D42068B0F85020131808788A69A6
:101B100008EBC000185AC0F3090082420CD9121A0F
:101B20008A610BD04A6902444A61CA691044C8619B
:101B3000206801F077F90AE00020886109782046E2
:101B4000FEF7CCFC03E03A462046FEF79CFD2068F9
:101B5000B0F8441009043FF5A3AE002000F000B82F
:101B600018BCBDE8E08F70472DE9F041444C0546B4
:101B70008846E0680026810728680DD0E16801F0FA
:101B80000301814216D1A8B1E0686968C0F3021070
:101B9000401C88420ED120E0012804D0022805D044
:101BA000032807D108E02168890701E02168490579
:101BB000002907DB01265FE02168890302D4216840
:101BC0004903F5E7E1686A686FF00F0321F07301DC
:101BD00003EB021211430143E160206820F08060B2
:101BE0002060FEF793FB074605E000BFFEF78EFB83
:101BF000C01B022837D820680001F7D4B8F1000FC5
:101C000018D0B8F1010F1DD0287D4FF07E4140085B
:101C100001EB4060A96840EA01202169194A11409E
:101C200008432061206840F080602060FEF76EFB72
:101C300007461AE0A868297B000240EAC1602169D2
:101C4000114AECE7288A1149400801EB4050A96885
:101C500040EA012021690E4AE1E700BFFEF756FB8A
:101C6000C01B022801D9032606E020680001F5D533
:101C70002069A969084320613046BDE8F081000071
:101C800000100240FF80FFF9FF80FF070000E0FF27
:101C9000FF809FFFF8B51C4D06460024A86DC000CC
:101CA00002D5FFF79BF80DE0A86D40F08050A865C5
:101CB000A86D00F080500090FFF790F8A96D21F01A
:101CC0008051A965B0F5007F04D0802E07D94FF070
:101CD00003040AE0802E08D9A02E01D804E001D127
:101CE000022402E0702E00D101240848016821F08E
:101CF000070121430160006800F00700A04201D005
:101D00000120F8BD0020F8BD001002400020024074
:101D100070470178407841EA00207047FEF7FCBA2E
:101D2000F0B5ABB0442115A8FEF767FA142126A838
:101D3000FEF763FA54216846FEF75FFA102015900B
:101D400060201D9001240026CDE91B460225CDE927
:101D50001F540727CDE9237528202595CDE921407B
:101D600015A8FFF76BFA0F2026900320CDE9270670
:101D70002996042126A82A96FFF77EF96003009091
:101D80004003019410901820CDE902402005CDE9D0
:101D90000650CDE904756846FFF728F86002FEF7A3
:101DA000E1FF2BB0F0BD00000D48016841F4700167
:101DB00001600C48016841F001010160002181606F
:101DC0000268094B1A4002608214C260026822F461
:101DD0008022026081610249C00380390860704737
:101DE00088ED00E000100240FFFFF6EA10B5D0F8E1
:101DF000B8220AB152689047002010BD134610B5B2
:101E00000A46002100F033FB002010BD134610B538
:101E10000A46002100F0E6FB002010BD10B5044684
:101E2000802100F0B6FB2046BDE81040002100F004
:101E3000B0BB10B505210023C0F894121A4619460C
:101E400000F015FB002010BD10B502238261C0F820
:101E50009432C26113460A46002100F0C3FB002001
:101E600010BD10B504210023C0F894121A4619467B
:101E700000F0B8FB002010BD10B50A46024903A0CF
:101E800000F0F1F8004810BD9004002048494420BB
:101E9000436F6E6669670000122008800048704733
:101EA0006400002010B50A46024903A000F0DBF8E8
:101EB000004810BD9004002048494420496E7465D4
:101EC0007266616365000000042008800048704766
:101ED0006000002010B50A46024903A000F0C3F8D4
:101EE000004810BD9004002053544D6963726F6523
:101EF0006C656374726F6E696373000010B50A4697
:101F0000024903A000F0AFF8004810BD9004002083
:101F100053544D33322048756D616E20696E74657F
:101F2000726661636500000010B51A2008800A48D7
:101F30000168001D0468001D0068081809D0082207
:101F40000649FFF747FC0549042210312046FFF7F8
:101F500041FC0248801E10BD9075FF1F86000020C6
:101F60000C2008800048704778000020F8B504462F
:101F70000020ADF8000048880D46010A062947D028
:101F800006DC01290FD0022912D0032962D11DE0FD
:101F9000072946D00F295DD1D4F8B402C26920E0E8
:101FA000694690473BE0D4F8B412207C0A68F7E712
:101FB000207C02260028D4F8B80205D0C16A684601
:101FC00088470146467036E0816AF8E7C0B20628C5
:101FD00040D2DFE800F003090D111519D4F8B4025E
:101FE0004268B2B3207CDBE7D4F8B4028268F8E739
:101FF000D4F8B402C268F4E7D4F8B4020269F0E796
:10200000D4F8B4024269ECE7D4F8B4028269E8E794
:10201000207CF0B9D4F8B802416B68468847014685
:1020200009E0207CA8B9D4F8B802016B684688475B
:10203000014607204870EA888AB1BDF8000040B127
:10204000824200D90246ADF800202046FFF7FCFE90
:10205000F8BDFFE729462046FFF7E0FEF8E72046F7
:10206000FFF7FFFEF4E770B5002300281ED000251F
:10207000044602E06D1CEDB2641C2678002EF9D1F6
:10208000022404EB450414801278CA545B1C03221A
:10209000CA5400245B1C06E0CA545B1CDAB28C54A0
:1020A000521CD3B2401C0278002AF5D170BDD0F882
:1020B000BC02002101730846704770B504468121B7
:1020C00000F0DDF8002525876587D4F8BC0218B13B
:1020D00001F09EF9C4F8BC52002070BD0A210180B5
:1020E00000487047500100202221018000487047BD
:1020F000D80000202221018000487047FC00002009
:1021000022210180004870472001002070B504465C
:10211000102001F027FA05004FF0000610D0C4F897
:10212000BC52207C80B10A206087052303228121D4
:10213000204600F089F9012020872E73002070BD11
:102140000220C4F8BC6270BD0720EDE710B513464D
:1021500090F89C42D0F8BC22032C07D1147B2CB9F8
:10216000012414730A46812100F03CFA002010BDBE
:1021700038B50024D0F8BC32ADF800400A7812F02F
:10218000600216D0202A4DD14A78022A0ED0032AA6
:1021900006D00A2A06D00B2A44D18878186044E079
:1021A00001222FE04888000A58603EE00122191DF4
:1021B00029E04A78062A10D003DC3AB1012A31D14D
:1021C00033E00A2A22D00B2A2CD127E090F89C2257
:1021D000032A27D10222694615E04A882223B3EB5D
:1021E000122F05D1CA884E2A00D94E22114B09E080
:1021F0002123B3EB122F15D10E4BCA88183B092AA5
:1022000000D909221946FFF71FFE0EE090F89C2224
:10221000032A07D1012203F10801F4E790F89C2278
:10222000032A04D0FFF7FAFD0324204638BD88783E
:102230009860FAE75C01002078B10023C0F8B8325A
:10224000C0F8C032C0F8CC3209B1C0F8B4120121D4
:1022500080F89C12027000F0AFB80320704710B5F0
:102260000024D0F8C402FEF772F930B1012801D081
:10227000022801D0032400E00124204610BD10B53F
:102280000024D0F8C402FEF73CF930B1012801D097
:10229000022801D0032400E00124204610BD70B5BF
:1022A0001646044649B1D4F8B80242691AB194F806
:1022B0009C02032842D0032070BDD4F8941200255C
:1022C00004F11400022932D1D0E902318B4206D93F
:1022D0005A1A826031462046FFF798FD0FE0994276
:1022E00014D14068884211D3D4F8981288420DD294
:1022F000002211462046FFF789FDC4F898520023BA
:102300001A461946204600F0B2F810E0D4F8B80298
:10231000C16829B194F89C02032801D1204688475E
:102320008021204600F035F92046FFF782FD94F821
:10233000A002012806D184F8A05203E0204690476D
:102340000028B9D1002070BD10B51346044649B12C
:10235000D4F8B80282691AB194F89C02032824D0F8
:10236000032010BDD4F8941204F5AA70032920D1DB
:10237000D0E9021291420AD98A1A8260C068824268
:1023800000D3024619462046FFF738FD11E0D4F885
:10239000B802016929B194F89C02032801D12046B2
:1023A00088472046FFF75DFD03E020469047002860
:1023B000D7D1002010BD000010B50446FEF706FD81
:1023C00017491848C1F8F042C4F8C4120860082040
:1023D0004860022088600861002048618861C86107
:1023E00008620846FEF7BEFB08B1FDF758FF002261
:1023F000D4F8C4021823114604F53174FEF750F8DE
:102400005823002280212068FEF74AF84FF4807399
:10241000002281212068FEF743F8002010BD000053
:10242000A4060020006800400A0601F07F01D0F8F1
:10243000C40201EB810100EBC10002D590F82A0033
:10244000704790F86A01704770B51D461346002426
:10245000D0F8C4022A46FEF730FA30B1012801D084
:10246000022801D0032400E00124204670BD10B5ED
:102470000024D0F8C402FEF750FA30B1012801D090
:10248000022801D0032400E00124204610BD70B5CD
:102490000125044680F89C520020C4F89402606034
:1024A000C4F8A402D4F8BC0228B1D4F8B8020021C0
:1024B0004268204690470022402311462046FFF7FD
:1024C000C3FF4026A4F864513346002280212046F1
:1024D000C4F86061FFF7B8FFA5840020266270BDD4
:1024E00090F89C12042903D190F89D1280F89C1258
:1024F0000020704710B590F89C12032904D1D0F841
:10250000B812C96901B18847002010BD01740020CC
:10251000704710B50024D0F8C402FEF7E1FB30B1DB
:10252000012801D0022801D0032400E00124204624
:1025300010BD70B5044600F2AA20054600F062F80E
:102540000120C4F89402B4F8B002C4F8980294F8D8
:10255000AA0210F01F010AD001290ED0022912D0C0
:1025600000F080012046BDE8704000F012B8294616
:102570002046BDE8704000F0D7B829462046BDE8A7
:10258000704000F0FBB929462046BDE8704000F0DD
:1025900055B910B50024D0F8C402FEF7D7F930B110
:1025A000012801D0022801D0032400E001242046A4
:1025B00010BD10B50024D0F8C402FEF7ACFB30B15A
:1025C000012801D0022801D0032400E00124204684
:1025D00010BD90F89C1280F89D12042180F89C1286
:1025E0000020704710B50024D0F8C402FEF7E7F9C8
:1025F00030B1012801D0022801D0032400E00124D9
:10260000204610BD70B5054611F8010B28700878FA
:1026100068704C1C2046FFF77CFB6880A41C204699
:10262000FFF777FBA880A01CFFF773FBE88070BD65
:1026300038B504460020ADF8000049B1C4F8B8121E
:10264000C96A19B168468847C4F8CC02002038BD71
:10265000032038BD02460320D2F8B832002B02D046
:102660001B681046184770472DE9F0410F462C4E65
:102670008978002504463170012906D9394620465B
:10268000FFF7CCFB0320BDE8F08194F89C02022800
:102690000CD003281DD039462046FFF7BFFB317808
:1026A0002046FFF7A3FB03252846ECE799B3204615
:1026B0006160FFF7CFFF050004D039462046FFF7E1
:1026C000ADFBF1E72046FFF7CCFB032084F89C022A
:1026D000EAE74FF00208C1B1606888421BD0C1B27E
:1026E0002046FFF783FB317820466160FFF7B2FF99
:1026F000050010D039462046FFF790FB217920468F
:10270000FFF774FB84F89C82CEE784F89C82204615
:102710006160FFF76BFB2046FFF7A3FBC4E70000F7
:102720009E000020FFF745BF2DE9F0410A78002503
:1027300012F0600208D0202A01D0402A71D1D0F8CE
:10274000B8229268904731E04B78002201260A2B8C
:1027500067D2DFE803F0415E6658660805662D29FA
:10276000FFF704FC5FE004468888D8B9C888C8B978
:102770004888802816D200F07F0794F89C0203282E
:1027800010D084F89E7239462046FFF7C2FE2046DC
:10279000FFF767FB1FB1022084F89C0243E084F836
:1027A0009C6240E020463CE0FFF75EFF05463AE0D1
:1027B000CB88012B35D190F89C32012B04D0022B11
:1027C00002D0032B2DD104E08260012200F1080128
:1027D00016E00122011D13E090F89C22012A03D08B
:1027E000022A01D0032A1CD1CA88022A19D1C66044
:1027F000D0F8A41209B10321C160022200F10C013A
:10280000FFF722FB0FE0498801290CD1C0F8A46230
:1028100011E090F89C32012B08D0022B06D0032B3C
:1028200004D0FFF7FBFA2846BDE8F081498801296A
:10283000F9D1C0F8A422FFF714FBF4E72DE9F04129
:102840000D46044628780026097910F060000BD068
:10285000202801D040286DD1D4F8B80229468268DA
:1028600020469047064686E06878A8B3012822D023
:1028700003287CD194F89C02022802D0032876D148
:102880000BE0002973D0802971D02046FFF781FE2C
:1028900080212046FFF77DFE6DE0688838B931B1B0
:1028A000802904D0E88810B92046FFF772FE204640
:1028B000FFF7D7FA5FE094F89C020228E1D00328E2
:1028C00055D16888A8BB480602D02046FFF7C7FC50
:1028D0002046FFF7C6FABFE7FFE794F89C020027FF
:1028E000022802D0032842D111E009B180293ED14B
:1028F000080601F07F0000EB800004EB800101D5A9
:10290000143101E001F5AA7102220F602BE00806E4
:1029100001F00F0000EB800004EB80000BD5808CF1
:1029200040B101F07F0000EB800004EB800514351E
:102930000CE020E01BE0B0F86401C0B101F07F00C2
:1029400000EB800004EB800505F5AA7541B18029F4
:1029500006D02046FFF768FD10B10120286000E096
:102960002F60022229462046FFF76EFA03E029462F
:102970002046FFF753FA3046BDE8F08170B50646B1
:10298000087800240D4610F0600003D0202801D004
:10299000402817D196F89C02012803D0022801D0C4
:1029A00003280FD1287901280CD8D6F8B8028268FC
:1029B000304690470446E888204306D13046FFF76A
:1029C00050FA02E03046FFF729FA204670BD2DE9A3
:1029D000F0470C78002630F8243048F68F12134068
:1029E000CA78002A7DD0012A7CD0022A02D0032A8C
:1029F0007FD0012648F28002134320F824300D785E
:102A000030F8254048F68F731C402C43144320F8BF
:102A100025400D7B48F2C00C48F6BF744CF280078D
:102A20004BF68F79EDB391F80080C24630F828500C
:102A300048F280181D4045EA080520F82A50B0F8F1
:102A4000505091F80080054405EBC805B1F80880A6
:102A500028F00108A5F80084B0F8505091F80080E3
:102A6000054405EBC805B1F80A8028F00108A5F86F
:102A700004844D78002D0D7830F825804FEA4848C1
:102A80007DD0B8F1000F07DA30F8258008EA030896
:102A900048EA070820F825800F7830F827506D069F
:102AA00000E02CE006D530F827501D4045EA0C0523
:102AB00020F82750CB780D78012B30F8253003EA29
:102AC000040301D083F02003134320F825300B7852
:102AD00030F8231001EA0901114320F82310304691
:102AE00002E003E008E004E0BDE8F08743F400738F
:102AF00080E743F4C0637DE743F480637AE74D7871
:102B00002DB3B0F850500F78054405EBC705CF88BA
:102B100027F00107A5F800740F7830F827506D06EC
:102B200006D530F827501D4045EA0C0520F82750FF
:102B3000CB78012B06D00B7830F82310214081F0A0
:102B40002001C9E70B7830F823102140C4E7B0F822
:102B500050400D78044404EBC504CD8825F00105F0
:102B6000A4F80454B0F850400D78044404EBC504B4
:102B70000D6904F2064475B13E2D14D800E030E032
:102B80004FEA550CED0701D00CF1010C4FF6FF7523
:102B900005EA8C2511E0258825F4F845258025884F
:102BA00045F4004509E04FEA551CED0601D1ACF1B2
:102BB000010C4FF4004545EA8C2525800D7830F84E
:102BC0002540640405D530F825401C403C4320F8DE
:102BD00025400B7830F8231001EA090181F44051B7
:102BE0007AE7B8F1000F07DA30F8258008EA030821
:102BF00048EA070820F825800F7830F827506D063E
:102C000006D530F827501D4045EA0C0520F827501E
:102C10000D7830F8253003EA090383F44053134359
:102C200020F825308EE7002070472DE9F04391F819
:102C30000C804F780A7848F6BF7C4BF68F7948F2C3
:102C4000800348F2C0054CF2800648F68F74B8F154
:102C5000000F28D0002F30F822704FEA474748D0A5
:102C6000002F05DA30F822702740374320F8227011
:102C70000A7830F822707F0605D530F82270274098
:102C80002F4320F822700D7830F82520224032435F
:102C900020F825200C7830F8242002EA0C021A4390
:102CA00020F824201AE07FB130F82260760605D59E
:102CB00030F8226026402E4320F822600A7830F84F
:102CC000221001EA0C010EE030F822506D0405D507
:102CD00030F822502540354320F822500A7830F849
:102CE000221001EA0901194320F822100020BDE852
:102CF000F083002F05DA30F822702740374320F8A0
:102D000022700A7830F82260760605D530F8226005
:102D100026402E4320F822600E7830F826202240EC
:102D20002A4320F826200C7830F8242002EA0902F1
:102D30001A4320F82420C1E730F8581F41F400411D
:102D400001800020704730F8581FC1F30E01018048
:102D500000207047012120F8401F00210180818060
:102D600001820846704730F8401F4BF6807291434D
:102D70000180002070470020704730B50A7BB2BB4D
:102D80004A7848F68F7548F28004C2B10B7830F863
:102D90002320520607D530F823202A4048F2C005E8
:102DA0002A4320F82320CA78012A20D00A7830F854
:102DB000221048F6BF73194081F0200114E00A7810
:102DC00030F822305B0407D530F822302B404CF22B
:102DD00080052B4320F822300A7830F822104BF679
:102DE0008F73194081F44051214320F822100020B4
:102DF00030BD10B54A780978002A48F2800330F8CF
:102E0000212005D048F6BF74224082F0100204E071
:102E10004BF68F74224082F480521A4320F821200E
:102E2000002010BD2DE9F04F0D464A78097B04467D
:102E30004FF0000A48F68F7948F2800B4FF6FF7783
:102E40004FF40048012A09D000297DD0E8780228F3
:102E50007BD001287AD0012000F04BBAAE692869F6
:102E6000864200D9064681B1E97802291CD028782B
:102E700034F820104906B4F85010214401EBC0008A
:102E800071D5A0F806646A8929E1B3B2EA882046C0
:102E9000696900F061FAB4F850002978204400EB29
:102EA000C100A0F8026436E1296A81426FD929780D
:102EB00034F8210048F2801200EA0900104324F897
:102EC00021002E69286A801B2862287834F8201097
:102ED0004906697876D511B1012921D027E0B4F8E7
:102EE0005010214401EBC00000F206404EB13E2ECE
:102EF0000FD87108F20700D0491C07EA8121018030
:102F000015E0018821F4F8410180018841F4004175
:102F1000F5E77109F20600D1491E48EA8121EEE782
:102F2000B4F85020111901EBC000A0F806646A89BA
:102F3000B3B22046696900F00FFA686930446861ED
:102F4000296A2869814202E0EEE00DE178E102D9C8
:102F5000091A296202E00846C5F820A0697819B16B
:102F6000012924D02BE0B7E0B4F850102A7821448E
:102F700001EBC20101F2024150B13E2810D84208D3
:102F8000C30700D0521C07EA82220A8017E08EE0B5
:102F90000A8822F4F8420A800A8842F40042F4E7E0
:102FA0004209C30600D1521E48EA8222EDE7B4F876
:102FB00050102A78214401EBC201A1F802042A89A9
:102FC0006FE0FFE711B1012921D027E0B4F85010DC
:102FD000214401EBC00000F202404EB13E2E0FD85A
:102FE0007108F20700D0491C07EA8121018015E031
:102FF000018821F4F8410180018841F40041F5E79E
:103000007109F20600D1491E48EA8121EEE7B4F8C1
:103010005010214401EBC000A0F802642A89B3B229
:103020002046696900F098F9686930446861296A46
:103030002869814202D9091A296202E00846C5F8C6
:1030400020A0697811B1012922D029E0B4F85010EC
:103050002A78214401EBC20101F2064148B13E2821
:103060000FD84208C30700D0521C07EA82220A8008
:1030700016E00A8822F4F8420A800A8842F40042E4
:10308000F5E74209C30600D1521E48EA8222EEE764
:10309000B4F8502011192A7801EBC201A1F80604F6
:1030A0006A8983B22046696900F056F933E02A78CC
:1030B00034F8220048F68F63184040EA0B0024F8E9
:1030C0002200B4F850002A78204400EBC2008BB2F2
:1030D000A0F802342A89E5E7A0F802642A89B3B28D
:1030E0002046696900F038F9687810B1012808D0E5
:1030F00011E0297834F8210048F2C00200EA090002
:1031000006E0297834F821004CF2800200EA090038
:10311000104324F82100297834F8210048F6BF72C2
:10312000104080F03000DEE0A9692869814202D9B0
:10313000091AA961B5E00846C5F818A0B1E00888E9
:1031400020F4F8400880088840F400400AE03E2857
:1031500075D84208C00700D0521C07EA822001E05F
:1031600048EA82200880B6E092B9B4F85000297885
:10317000204400EBC100296900F2024069B13E29F8
:1031800013D84A08C90700D0521C07EA82210180DF
:10319000687888B1012832D03AE0018821F4F841FA
:1031A0000180018841F40041F1E74A09C90600D1D4
:1031B000521E48EA8221EAE7B4F8500029782044F8
:1031C00000EBC100296900F2064049B13E290FD841
:1031D0004A08C90700D0521C07EA8221018017E083
:1031E000018821F4F8410180018841F40041F5E7AC
:1031F0004A09C90600D1521E48EA8221EEE7B4F816
:1032000050100819297800EBC100298AA0F806148B
:10321000E869B0B3297834F82100420401D54206A8
:1032200003D444F24002104255D134F8210048F250
:10323000C00200EA0900104324F821004BE03CE002
:10324000A9692869814202D9091AA96102E00846E0
:10325000C5F818A08AB9B4F850102A78214401EBB7
:10326000C20101F2024168B13E2813D84208C307E7
:1032700000D0521C07EA82220A80697889B10129AC
:1032800021D028E00A8822F4F8420A800A8842F411
:103290000042F1E74209C30600D1521E48EA8222E9
:1032A000EAE7B4F850102A78214401EBC20101F298
:1032B000064100287FF44BAF41E74209C0067FF486
:1032C0004FAF521E4CE7B4F8502011192A7801EB89
:1032D000C201A1F80604297834F821004BF68F7258
:1032E000104080F4405040EA0B0024F821000020F8
:1032F000B2E530BCBDE8C08F0021A0F844104BF609
:103300008071A0F840100020704700000148FDF7D0
:1033100070BB0000A4060020B0F84400704710B550
:1033200010445C0800F5806008D030F8022B01F8EA
:10333000012B120A01F8012B641EF6D1DA0701D025
:103340000088087010BD0020704711B98021A0F8D6
:103350004C1000207047000010B55B1C10445B0847
:1033600000F580600AD000BF11F8012B11F8014B65
:1033700042EA042220F8022B5B1EF5D110BD0000AA
:1033800002480121017000787047000020000020F1
:103390000120704700207047024801210170007829
:1033A000704700002000002000207047FEE709075A
:1033B000090E002804DB00F1E02080F800147047BB
:1033C00000F00F0000F1E02080F8141D704702E0CB
:1033D00008C8121F08C1002AFAD1704770470020A0
:1033E00001E001C1121F002AFBD1704710B5002176
:1033F00005A000F065F86420FCF776FF0021BDE829
:1034000010400A2000F02CB86578697400000000B4
:1034100010B5002821D0114B0022001F196803E0CD
:10342000814203D80A4649680029F9D152B113688C
:10343000841A9C4204D1006818441060104602E0CF
:10344000506000E0186039B102680B1A934203D152
:103450000B681A4402604968416010BDAC0100204D
:10346000144A10B552682AB1802801D98038C0B2F8
:10347000114A105C0F4C00F07F0208340006A27065
:10348000617002D541F0020060700A4905220831DE
:103490000A48FEF75BFE0820FCF726FF002060705C
:1034A000A07004490522BDE8104008310348FEF72A
:1034B0004DBE00000000002000360008B4010020CE
:1034C00070B50E460546002407E0285D3146FFF73B
:1034D000C7FF0720FCF708FF641C2846FCF798FE8E
:1034E000A042F2D270BD00001C48012102220170EE
:1034F000002141708170C170017108380270417003
:10350000FCF712FFFEF70CFCFEF78EF9FEF77EF9D2
:10351000FEF798F94FF4FA60FCF7E6FE00F058F871
:103520004FF47A752846FCF7DFFE0D4E0024A6F511
:103530007067315D07EBC410FFF7C2FF3C20FCF75A
:10354000D3FE641C1E2CF4D941F27070FCF7CCFE43
:10355000FFF74CFF2846FCF7C7FEFBE708000020FA
:1035600080450008F0B50B30154D20F00701002410
:10357000144A0FE003688B420BD38B4205D95E1AC5
:1035800043184768C3E9006700E04368136002C05E
:1035900004E0021D10680028ECD12046002802D16A
:1035A000286808B10020F0BD064A07481060074AA5
:1035B000121A22F00702C0E9002401202860D7E790
:1035C000B0010020AC0100209C090020980B0020D5
:1035D00010B508217220FFF743FF4FF49670FCF7F7
:1035E00083FE002105A0FFF76BFF6420FCF77CFE43
:1035F0000021BDE810400A20FFF732BF636D640070
:1036000000000000000000002A2B2800000000003D
:1036100000000000000000000000000000000000AA
:103620002C9EB4A0A1A2A434A6A7A5AE362D3738EF
:10363000271E1F20212223242526B333B62EB7B8F8
:103640009F8485868788898A8B8C8D8E8F909192B6
:10365000939495969798999A9B9C9D2F3130A3AD02
:10366000350405060708090A0B0C0D0E0F10111280
:10367000131415161718191A1B1C1DAFB1B0B5007D
:103680006364202E2E0000000000000000000000F7
:10369000000000000000000000000000000000002A
:1036A000000000000000000000000000000000001A
:1036B000000000000000000000000000000000000A
:1036C00000000000000000000000000000000000FA
:1036D00000000000000000000000000000000000EA
:1036E00000000000000000000000000000000000DA
:1036F00000000000000000000000000000000000CA
:103700000A000000000000000000000000000000AF
:1037100000000000000000000000000000000000A9
:103720000000000000000000000000000000000099
:103730000000000000000000000000000000000089
:103740000000000000000000000000000000000079
:103750000000000000000000000000000000000069
:103760000000000000000000000000000000000059
:103770000000000000000000000000000000000049
:103780006364202E2E0000000000000000000000F6
:103790000000000000000000000000000000000029
:1037A0000000000000000000000000000000000019
:1037B0000000000000000000000000000000000009
:1037C00000000000000000000000000000000000F9
:1037D00000000000000000000000000000000000E9
:1037E00000000000000000000000000000000000D9
:1037F00000000000000000000000000000000000C9
:103800000A000000000000000000000000000000AE
:1038100000000000000000000000000000000000A8
:103820000000000000000000000000000000000098
:103830000000000000000000000000000000000088
:103840000000000000000000000000000000000078
:103850000000000000000000000000000000000068
:103860000000000000000000000000000000000058
:103870000000000000000000000000000000000048
:1038800063642074656D700000000000000000009B
:103890000000000000000000000000000000000028
:1038A0000000000000000000000000000000000018
:1038B0000000000000000000000000000000000008
:1038C00000000000000000000000000000000000F8
:1038D00000000000000000000000000000000000E8
:1038E00000000000000000000000000000000000D8
:1038F00000000000000000000000000000000000C8
:103900000A000000000000000000000000000000AD
:1039100000000000000000000000000000000000A7
:103920000000000000000000000000000000000097
:103930000000000000000000000000000000000087
:103940000000000000000000000000000000000077
:103950000000000000000000000000000000000067
:103960000000000000000000000000000000000057
:103970000000000000000000000000000000000047
:103980006D6B646972202457494E444F57532E7E05
:10399000544D500000000000000000000000000036
:1039A0000000000000000000000000000000000017
:1039B0000000000000000000000000000000000007
:1039C00000000000000000000000000000000000F7
:1039D00000000000000000000000000000000000E7
:1039E00000000000000000000000000000000000D7
:1039F00000000000000000000000000000000000C7
:103A00000A000000000000000000000000000000AC
:103A100000000000000000000000000000000000A6
:103A20000000000000000000000000000000000096
:103A30000000000000000000000000000000000086
:103A40000000000000000000000000000000000076
:103A50000000000000000000000000000000000066
:103A60000000000000000000000000000000000056
:103A70000000000000000000000000000000000046
:103A80006364202457494E444F57532E7E544D5063
:103A90000000000000000000000000000000000026
:103AA0000000000000000000000000000000000016
:103AB0000000000000000000000000000000000006
:103AC00000000000000000000000000000000000F6
:103AD00000000000000000000000000000000000E6
:103AE00000000000000000000000000000000000D6
:103AF00000000000000000000000000000000000C6
:103B00000A000000000000000000000000000000AB
:103B100000000000000000000000000000000000A5
:103B20000000000000000000000000000000000095
:103B30000000000000000000000000000000000085
:103B40000000000000000000000000000000000075
:103B50000000000000000000000000000000000065
:103B60000000000000000000000000000000000055
:103B70000000000000000000000000000000000045
:103B8000746F7563682057696E646F7773557064DE
:103B9000617465536572766963652E7662730000A1
:103BA0000000000000000000000000000000000015
:103BB0000000000000000000000000000000000005
:103BC00000000000000000000000000000000000F5
:103BD00000000000000000000000000000000000E5
:103BE00000000000000000000000000000000000D5
:103BF00000000000000000000000000000000000C5
:103C00000A000000000000000000000000000000AA
:103C100000000000000000000000000000000000A4
:103C20000000000000000000000000000000000094
:103C30000000000000000000000000000000000084
:103C40000000000000000000000000000000000074
:103C50000000000000000000000000000000000064
:103C60000000000000000000000000000000000054
:103C70000000000000000000000000000000000044
:103C80006E616E6F2057696E646F777355706461F3
:103C90007465536572766963652E76627300000001
:103CA0000000000000000000000000000000000014
:103CB0000000000000000000000000000000000004
:103CC00000000000000000000000000000000000F4
:103CD00000000000000000000000000000000000E4
:103CE00000000000000000000000000000000000D4
:103CF00000000000000000000000000000000000C4
:103D00000A000000000000000000000000000000A9
:103D100000000000000000000000000000000000A3
:103D20000000000000000000000000000000000093
:103D30000000000000000000000000000000000083
:103D40000000000000000000000000000000000073
:103D50000000000000000000000000000000000063
:103D60000000000000000000000000000000000053
:103D70000000000000000000000000000000000043
:103D800064696D2078487474703A205365742078A3
:103D900048747470203D206372656174656F626A57
:103DA00065637428224D53584D4C322E53657276FC
:103DB0006572584D4C4854545022290A0D00000099
:103DC00000000000000000000000000000000000F3
:103DD00000000000000000000000000000000000E3
:103DE00000000000000000000000000000000000D3
:103DF00000000000000000000000000000000000C3
:103E000064696D20625374726D3A20536574206248
:103E10005374726D203D206372656174656F626AD0
:103E2000656374282241646F64622E537472656105
:103E30006D22290A0D0000000000000000000000B3
:103E40000000000000000000000000000000000072
:103E50000000000000000000000000000000000062
:103E60000000000000000000000000000000000052
:103E70000000000000000000000000000000000042
:103E800078487474702E4F70656E20224745542216
:103E90002C2022687474703A2F2F676974687562D9
:103EA0002E636F6D2F73656261737469616E7474D4
:103EB000722F5261756D6B6C696D612F626C6F62F0
:103EC0002F6D61737465722F7075626C6973682FE2
:103ED0005261756D6B6C696D612E6578653F7261BD
:103EE000773D74727565222C2046616C73650A0DEE
:103EF00000000000000000000000000000000000C2
:103F000078487474702E53656E640A0D00000000CA
:103F100000000000000000000000000000000000A1
:103F20000000000000000000000000000000000091
:103F30000000000000000000000000000000000081
:103F40000000000000000000000000000000000071
:103F50000000000000000000000000000000000061
:103F60000000000000000000000000000000000051
:103F70000000000000000000000000000000000041
:103F80000A0A0D0000000000000000000000000010
:103F90000000000000000000000000000000000021
:103FA0000000000000000000000000000000000011
:103FB0000000000000000000000000000000000001
:103FC00000000000000000000000000000000000F1
:103FD00000000000000000000000000000000000E1
:103FE00000000000000000000000000000000000D1
:103FF00000000000000000000000000000000000C1
:104000007769746820625374726D0A0D00000000B5
:1040100000000000000000000000000000000000A0
:104020000000000000000000000000000000000090
:104030000000000000000000000000000000000080
:104040000000000000000000000000000000000070
:104050000000000000000000000000000000000060
:104060000000000000000000000000000000000050
:104070000000000000000000000000000000000040
:10408000202020202E74797065203D2031200A0DDB
:104090000000000000000000000000000000000020
:1040A0000000000000000000000000000000000010
:1040B0000000000000000000000000000000000000
:1040C00000000000000000000000000000000000F0
:1040D00000000000000000000000000000000000E0
:1040E00000000000000000000000000000000000D0
:1040F00000000000000000000000000000000000C0
:10410000202020202E6F70656E0A0D000000000038
:10411000000000000000000000000000000000009F
:10412000000000000000000000000000000000008F
:10413000000000000000000000000000000000007F
:10414000000000000000000000000000000000006F
:10415000000000000000000000000000000000005F
:10416000000000000000000000000000000000004F
:10417000000000000000000000000000000000003F
:10418000202020202E77726974652078487474701E
:104190002E726573706F6E7365426F64790A0D00DD
:1041A000000000000000000000000000000000000F
:1041B00000000000000000000000000000000000FF
:1041C00000000000000000000000000000000000EF
:1041D00000000000000000000000000000000000DF
:1041E00000000000000000000000000000000000CF
:1041F00000000000000000000000000000000000BF
:10420000202020202E73617665746F66696C6520AE
:1042100022633A5C74656D705C2457494E444F5775
:10422000532E7E544D505C636F6D5F73657276697B
:1042300063652E657865222C20320A0D000000008F
:10424000000000000000000000000000000000006E
:10425000000000000000000000000000000000005E
:10426000000000000000000000000000000000004E
:10427000000000000000000000000000000000003E
:10428000656E6420776974680A0000000000000011
:10429000000000000000000000000000000000001E
:1042A000000000000000000000000000000000000E
:1042B00000000000000000000000000000000000FE
:1042C00000000000000000000000000000000000EE
:1042D00000000000000000000000000000000000DE
:1042E00000000000000000000000000000000000CE
:1042F00000000000000000000000000000000000BE
:104300007800000000000000000000000000000035
:10431000000000000000000000000000000000009D
:10432000000000000000000000000000000000008D
:10433000000000000000000000000000000000007D
:10434000000000000000000000000000000000006D
:10435000000000000000000000000000000000005D
:10436000000000000000000000000000000000004D
:10437000000000000000000000000000000000003D
:1043800079000000000000000000000000000000B4
:10439000000000000000000000000000000000001D
:1043A000000000000000000000000000000000000D
:1043B00000000000000000000000000000000000FD
:1043C00000000000000000000000000000000000ED
:1043D00000000000000000000000000000000000DD
:1043E00000000000000000000000000000000000CD
:1043F00000000000000000000000000000000000BD
:104400000A000000000000000000000000000000A2
:10441000000000000000000000000000000000009C
:10442000000000000000000000000000000000008C
:10443000000000000000000000000000000000007C
:10444000000000000000000000000000000000006C
:10445000000000000000000000000000000000005C
:10446000000000000000000000000000000000004C
:10447000000000000000000000000000000000003C
:10448000637363726970742E6578652057696E6412
:104490006F7773557064617465536572766963658F
:1044A0002E76627300000000000000000000000093
:1044B00000000000000000000000000000000000FC
:1044C00000000000000000000000000000000000EC
:1044D00000000000000000000000000000000000DC
:1044E00000000000000000000000000000000000CC
:1044F00000000000000000000000000000000000BC
:104500000A000000000000000000000000000000A1
:10451000000000000000000000000000000000009B
:10452000000000000000000000000000000000008B
:10453000000000000000000000000000000000007B
:10454000000000000000000000000000000000006B
:10455000000000000000000000000000000000005B
:10456000000000000000000000000000000000004B
:10457000000000000000000000000000000000003B
:10458000000000000000000000000000000000002B
:10459000000000000000000000010000000000001A
:1045A00000000000000000000102030406070809E3
:1045B000A0860100400D0300801A060000350C00A3
:1045C00040420F0080841E0000093D0000127A0066
:1045D0000024F40000366E010048E801006CDC02A3
:1045E0000046000800000020B4010000440200085A
:1045F000FC460008B4010020E40D0000DE33000892
:1046000041B201290C82103B093D101381331B0874
:1046100099041A95041AA9041A91048113991E1B6E
:1046200008C9041AD5041AFD0413291F1B087908A8
:104630001AA5041A610C30090403090412010102CD
:10464000164083042B571D020102035514050F0C5D
:104650002D0107100219031A1A03130D211408BBA8
:10466000201B087108811AAF1001101AF5141AE9FD
:10467000041A01281ADD08140902221301011DE0A1
:10468000320904D51A03C815092111011401224E5B
:104690001607058103051A0ADFC92419A5D9240ABA
:1046A0002107242948691231130A0639EC19E3114C
:1046B000101405010906A10185010507750195087A
:1046C00019E029E715180925018102950375080AE3
:1046D0001564050719142965811EC0050C090129F7
:1046E0002C02050C21292DA01409B509B609B7091A
:0C46F000B809CD09E209E909EA8102C01D
:040000050800018D61
:00000001FF
